:020000040800F2
:1000000000000220D51A0008CD190008CF190008F9
:10001000D1190008D3190008D51900080000000004
:10002000000000000000000000000000D7190008D8
:10003000D919000800000000DB190008DD190008CC
:10004000251B0008251B0008251B0008251B000890
:10005000251B0008251B0008251B0008251B000880
:10006000251B0008251B0008251B0008251B000870
:10007000251B0008251B0008251B0008251B000860
:10008000251B0008251B0008251B0008251B000850
:10009000251B0008251B0008251B0008251B000840
:1000A000251B0008251B0008251B0008251B000830
:1000B000251B0008251B0008251B0008251B000820
:1000C000251B0008251B0008251B0008251B000810
:1000D000251B0008251B0008251B0008251B000800
:1000E000251B0008251B0008251B0008251B0008F0
:1000F000251B0008251B0008251B0008251B0008E0
:10010000251B0008251B0008251B0008251B0008CF
:10011000251B0008251B0008251B0008251B0008BF
:10012000251B0008251B0008251B0008251B0008AF
:10013000251B0008251B0008251B0008251B00089F
:10014000251B0008251B0008251B0008251B00088F
:10015000251B0008251B0008251B0008251B00087F
:10016000251B0008251B0008251B0008251B00086F
:10017000251B0008251B0008251B000800000000A7
:08018000251B0008251B0008E7
:1001880010B5054C237833B9044B13B10448AFF3C9
:1001980000800123237010BD0C0000200000000027
:1001A800801B000808B5034B1BB103490348AFF394
:1001B800008008BD0000000010000020801B00081F
:1001C80053B94AB9002908BF00281CBF4FF0FF31B6
:1001D8004FF0FF3000F06EB9ADF1080C6DE904CEB8
:1001E80000F006F8DDF804E0DDE9022304B070470A
:1001F8002DE9F047089D04468C46002B40F083808B
:100208008A42174647D9B2FA82F242B1C2F12000B7
:1002180024FA00F09140974040EA010C94404FEADC
:100228001748230CBCFBF8F61FFA87FE08FB16C11B
:1002380043EA014306FB0EF1994209D9FB1806F17E
:10024800FF3080F01981994240F21681023E3B440A
:100258005B1AA4B2B3FBF8F008FB103344EA03447A
:1002680000FB0EFEA64509D93C1900F1FF3380F0CA
:100278000581A64540F2028102383C4440EA064026
:10028800A4EB0E0400261DB1D4400023C5E90043A9
:100298003146BDE8F08702B9FFDEB2FA82F2002AE1
:1002A80050D1CB1B4FEA174E1FFA87F80126B3FB34
:1002B800FEFC210C0EFB1C3341EA034108FB0CF346
:1002C8008B4207D979180CF1FF3002D28B4200F229
:1002D800E9808446C91AA3B2B1FBFEF00EFB1011E7
:1002E80043EA014408FB00F8A04507D93C1900F18E
:1002F800FF3302D2A04500F2D9801846A4EB0804C7
:1003080040EA0C40BFE78B4209D9002D00F0B180CC
:100318000026C5E9000130463146BDE8F087B3FA4A
:1003280083F6002E4AD18B4202D3824200F2B88073
:10033800841A61EB030101208C46002DA8D0C5E981
:10034800004CA5E7C2F1200320FA03F6974001FA12
:1003580002F04FEA174ED9403043030CB1FBFEF6CA
:100368001FFA87F80EFB161143EA014306FB08F152
:10037800994204FA02F409D9FB1806F1FF3C80F00F
:100388008D80994240F28A80023E3B445B1A81B2DA
:10039800B3FBFEF00EFB103341EA034100FB08F308
:1003A8008B4207D9791800F1FF3C73D28B4271D97F
:1003B80002383944CB1A40EA064678E7C6F1200CE1
:1003C80003FA06F422FA0CF31C4320FA0CF701FA9C
:1003D80006F34FEA144E21FA0CF11F433B0CB1FB14
:1003E800FEF91FFA84F80EFB191143EA014109FBD3
:1003F80008FA8A4502FA06F200FA06F308D96118E3
:1004080009F1FF3048D28A4546D9A9F102092144A9
:10041800A1EB0A01BFB2B1FBFEF00EFB101147EAD7
:10042800014700FB08F8B84507D9E71900F1FF3183
:100438002ED2B8452CD90238274440EA0940A7EB08
:100448000807A0FB02894F45C64649461AD317D06C
:100458005DB1B3EB0E0267EB010707FA0CFCF24043
:100468004CEA0202F740C5E9002700263146BDE8FC
:10047800F0872E4628460BE70646E9E61846FDE6CD
:100488004345E5D2B8EB020E69EB04010138DFE71A
:100498000846D2E760468DE78146B9E7664675E7C4
:1004A80030464AE7ACF1020C394413E702383C44C1
:1004B80024E700BF704700BF10B504460E4B1878FC
:1004C8004FF47A73B3FBF0F30C4A1068B0FBF3F007
:1004D80000F09CF868B90F2C01D901200AE000222D
:1004E80021464FF0FF3000F05DF8034B5C600020C0
:1004F80000E0012010BD00BF00000020080000201F
:1005080008B50B4B1A6842F400721A601A6842F474
:1005180080621A601A6842F480721A60032000F040
:100528002FF80020FFF7C8FF01F030FA002008BDBF
:10053800003C0240034A1168034B1B780B441360CC
:10054800704700BF3004002000000020014B1868ED
:10055800704700BF3004002038B50446FFF7F6FFA7
:100568000546B4F1FF3F02D0044B1B781C44FFF74B
:10057800EDFF401BA042FAD338BD00BF00000020A9
:10058800074AD36823F4E0631B041B0C000200F441
:10059800E060034343F0BF6343F40033D360704724
:1005A80000ED00E030B4174BDB68C3F30223C3F15E
:1005B8000704042C28BF04241D1D062D18D9033B4D
:1005C8004FF0FF3505FA04F421EA0401994005FAD1
:1005D80003F322EA0303194300280BDB0901C9B21C
:1005E80000F1604000F5614080F8001330BC7047AE
:1005F8000023E5E700F00F000901C9B2024B1954C6
:10060800F4E700BF00ED00E014ED00E00138B0F1C0
:10061800807F0AD2064B5860064AF02182F82310E0
:100628000020986007221A6070470120704700BFB9
:1006380010E000E000ED00E000230F2B00F2DD8069
:10064800F0B482B05DE086685F000324BC4026EA0F
:100658000406CC68BC4034438460466826EA020637
:100668004C68C4F300129A403243426057E0DC08F9
:10067800083450F8247003F0070296000F22B240A5
:1006880027EA02070A69B2403A4340F824205AE0B0
:10069800072200E00022B2403A430234574E46F89F
:1006A8002420574A1468EA4324EA05064F6817F4D9
:1006B800803F01D045EA0406514C2660646802EA8E
:1006C80004064F6817F4003F01D045EA04064C4C75
:1006D8006660A46802EA04064F6817F4801F01D018
:1006E80045EA0406464CA660E46822404E6816F4C3
:1006F800001F01D045EA0402414CE26001330F2B90
:1007080078D801229A400C6804EA020532EA040407
:10071800F4D14C6804F00304013C012C93D94A68D5
:1007280002F00302032A09D0C4685E000322B24023
:1007380024EA02048A68B2402243C2604A6802F08E
:100748000302022A93D004685E000322B24024EA1E
:1007580002044A6802F00302B240224302604A6877
:1007680012F0805FCAD000220192264A546C44F4E9
:1007780080445464526C02F480420192019A9C08AD
:10078800A61C1E4A52F8267003F0030296000F2298
:10079800B24027EA02071C4A90423FF47BAF02F5B9
:1007A800806290421AD002F58062904218D002F519
:1007B8008062904216D002F58062904214D002F511
:1007C8008062904212D002F58062904210D002F509
:1007D800806290423FF45CAF08225CE701225AE74E
:1007E800022258E7032256E7042254E7052252E77B
:1007F800062250E702B0F0BC70477047003801404D
:10080800003C014000380240000002400AB181610A
:100818007047090481617047436901EA030221EACC
:10082800030141EA02418161704703685A6912F481
:10083800806F01D1002070476FF480625A610023F5
:100848000363202280F83D2080F83E30026C42F09D
:100858000402026480F83C30012070472DE9F04121
:1008680007460D4690461E4622E0FFF76FFE069BA0
:10087800C01AB04200D8DEB900233B63202287F8B3
:100888003D2087F83E303A6C42F020023A6487F8FF
:100898003C3001201AE03B689C6925EA0404A4B2B4
:1008A800B4FA84F46409A0450FD1B6F1FF3FDCD156
:1008B800C5F30743012BEED13B685C6925EA0404C4
:1008C800A4B2B4FA84F46409EDE70020BDE8F0812D
:1008D8002DE9F04105460E46174698463DE01A6850
:1008E80042F400721A602B686FF480625A61002328
:1008F8002B63202285F83D2085F83E302A6C42F093
:1009080004022A6485F83C30012034E0FFF71EFE1B
:10091800A0EB0800B84200D8FFB900232B632022BF
:1009280085F83D2085F83E302A6C42F020022A6482
:1009380085F83C3001201EE02B689C6926EA0404F7
:10094800A4B2003C18BF0124A4B12B685A6912F460
:10095800806FC4D1B7F1FF3FD8D1C6F30743012B4D
:10096800EAD12B685C6926EA0404A4B2003C18BFEB
:100978000124E9E70020BDE8F08170B504460D4682
:10098800164623685B6913F0800F1CD12046FFF7D9
:100998004CFFD0B9B5F1FF3FF3D0FFF7D7FD801B6F
:1009A800A84201D8002DECD100232363202284F82B
:1009B8003D2084F83E30226C42F02002226484F804
:1009C8003C30012000E0002070BD0120FCE7000061
:1009D8002DE9F04385B004460D4691461F46DDF8E3
:1009E80030800D9E0368196841F480711960009683
:1009F800434600224FF00111FFF730FF60B923682A
:100A080005F0FE051D613346424626492046FFF79C
:100A18005FFF68B1012008E023681B6813F4807F3A
:100A280002D04FF400732364032005B0BDE8F083BF
:100A38000023039323685A6903929B690393039BDA
:100A4800324641462046FFF798FF30B9012F0FD1B3
:100A580023685FFA89F61E61E7E7236C042B01D04F
:100A68000120E2E72268136843F400731360F7E794
:100A780023684FEA19221A61324641462046FFF799
:100A88007CFF20B923685FFA89F61E61CDE7236CE5
:100A9800042B01D00120C8E72268136843F40073CF
:100AA8001360F7E70200010070B504460D461646CC
:100AB80023685B6913F0040F1CD12046FFF7B5FECD
:100AC800D0B9B5F1FF3FF3D0FFF740FD801BA84236
:100AD80001D8002DECD100232363202284F83D2087
:100AE80084F83E30226C42F02002226484F83C30C4
:100AF800012000E0002070BD0120FCE7002800F084
:100B0800CC80F8B5044690F83D30002B77D02423EC
:100B180084F83D302268136823F0010313602268CB
:100B2800136843F4004313602268136823F40043F6
:100B3800136000F075FC62685A4B9A4264D85A4BAD
:100B480098428CBF00230123002B40F0A880574D0A
:100B5800A5FB0035AF0C2668716821F03F0141EA1A
:100B68009541716021680B6A23F03F0365684D4A1F
:100B780095424FD87A1C13430B622568E96921F422
:100B88004F4121F0FF016368464A93424CD801382F
:100B98005B00B0FBF3F0013040F6FC73184278D0EC
:100BA800C0F30B030B43EB6121680B6823F0C00310
:100BB800E269206A024313430B6021688B6823F4BF
:100BC800034323F0FF032269E068024313438B6069
:100BD8002168CB6823F0FF036269A06902431343CD
:100BE800CB602268136843F001031360002020647F
:100BF800202384F83D30206384F83E00F8BD80F857
:100C08003C3000F069FD82E7294B98428CBF0023F5
:100C1800012399E74FF4967202FB07F2254DA5FBD5
:100C2800025292090132A6E7A268BAB9461E03EB3E
:100C38004307B6FBF7F60136C6F30B06B6FA86F697
:100C4800760946BBC2B9421E03EB4303B2FBF3F27B
:100C58000132C2F30B0242F40043A3E7461E03EB42
:100C6800830707EB8707B6FBF7F60136C6F30B06D3
:100C7800B6FA86F67609E4E7421E03EB830303EB34
:100C88008303B2FBF3F20132C2F30B0242F4404396
:100C980088E7042386E7012384E7012070470120C1
:100CA800ACE700BFA08601007F841E0083DE1B43E3
:100CB800FF083D00D34D62102DE9F04383B0044690
:100CC8000F46904699460C9EFFF740FC054694F85F
:100CD8003D00C0B2202803D0022003B0BDE8F08355
:100CE8000095192301224B492046FFF7B7FD00283C
:100CF80040F0898094F83C30012B00F08680012375
:100D080084F83C3023681A6812F0010F03D11A687E
:100D180042F001021A602268136823F4006313602A
:100D2800212384F83D30402384F83E300023236497
:100D38000A9B6362BDF82C306385638D2385364B2F
:100D4800E362019500964B46424639462046FFF736
:100D58003FFE00285BD1238D002B35D02A46314633
:100D68002046FFF70AFE20BB626A236812781A61E0
:100D7800616A4B1C6362228D013A92B22285638DAF
:100D88009BB2013B9BB263852368586910F0040F3E
:100D9800E1D0002ADFD04A781A61636A01336362BE
:100DA800238D013B2385638D9BB2013B9BB26385F9
:100DB800D1E7236C042B01D001208EE72268136849
:100DC80043F400731360F7E72A4631462046FFF7DD
:100DD8006BFE50B1236C042B01D001207DE7226803
:100DE800136843F400731360F7E72268136843F449
:100DF80000731360202384F83D30002384F83E30CC
:100E080084F83C3069E7022067E7022065E70120A3
:100E180063E700BF020010000000FFFF002800F099
:100E2800DF8170B582B00446036813F0010F3BD030
:100E3800A64B9B6803F00C03042B2CD0A34B9B6898
:100E480003F00C03082B21D06368B3F5803F4FD023
:100E5800B3F5A02F52D09D4B1A6822F480321A6045
:100E68001A6822F480221A606368002B50D0FFF7BA
:100E78006DFB0546954B1B6813F4003F14D1FFF733
:100E880065FB401B6428F5D90320B0E18F4B5B68F4
:100E980013F4800FD8D08D4B1B6813F4003F03D098
:100EA8006368002B00F09E81236813F0020F54D072
:100EB800864B9B6813F00C0F3ED0844B9B6803F065
:100EC8000C03082B33D0E368002B67D0804B01223A
:100ED8001A60FFF73BFB05467C4B1B6813F0020FBB
:100EE80053D1FFF733FB401B0228F5D903207EE1DD
:100EF800764A136843F480331360B5E7734B1A6876
:100F080042F480221A601A6842F480321A60ABE711
:100F1800FFF71CFB05466D4B1B6813F4003FC3D05D
:100F2800FFF714FB401B6428F5D903205FE1674BEA
:100F38005B6813F4800FC6D1644B1B6813F0020F73
:100F480003D0E368012B40F04F81604A136823F017
:100F5800F803216943EAC1031360236813F0080FFB
:100F680040D0636963B35B4B01221A60FFF7EEFA66
:100F78000546564B5B6F13F0020F33D1FFF7E6FAC5
:100F8800401B0228F5D9032031E1504A136823F0A9
:100F9800F803216943EAC1031360DEE74C4B0022E2
:100FA8001A60FFF7D3FA0546484B1B6813F0020F87
:100FB800D3D0FFF7CBFA401B0228F5D9032016E15E
:100FC800444B00221A60FFF7C1FA05463F4B5B6F9E
:100FD80013F0020F06D0FFF7B9FA401B0228F5D923
:100FE800032004E1236813F0040F78D0374B1B6CFF
:100FF80013F0805F0DD100230193344B1A6C42F03B
:1010080080521A641B6C03F080530193019B0125E5
:1010180000E00025304B1B6813F4807F21D0A368C3
:10102800012B32D0052B36D0284B1A6F22F0010243
:101038001A671A6F22F004021A67A368002B34D0CB
:10104800FFF784FA0646214B1B6F13F0020F45D1B8
:10105800FFF77CFA801B41F288339842F3D90320CA
:10106800C5E01D4A136843F480731360FFF76EFAF6
:101078000646194B1B6813F4807FD0D1FFF766FA38
:10108800801B0228F5D90320B1E0104A136F43F002
:1010980001031367D1E70D4B1A6F42F004021A6778
:1010A8001A6F42F001021A67C7E7FFF74FFA0646C0
:1010B800064B1B6F13F0020F10D0FFF747FA801B87
:1010C80041F288339842F3D9032090E00038024077
:1010D80000004742800E474200700040EDB9A36906
:1010E800002B00F08380494A926802F00C02082A1B
:1010F80051D0022B17D0464B00221A60FFF726FA70
:101108000446424B1B6813F0007F42D0FFF71EFADB
:10111800001B0228F5D9032069E03C4A136C23F030
:1011280080531364DBE73A4B00221A60FFF70EFA8C
:101138000546364B1B6813F0007F06D0FFF706FA0A
:10114800401B0228F5D9032051E0E369226A1343C2
:10115800626A43EA8213A26A5208013A43EA0243E6
:10116800E26A43EA0263294A5360294B01221A6062
:10117800FFF7ECF90446254B1B6813F0007F06D1F6
:10118800FFF7E4F9001B0228F5D903202FE000201F
:101198002DE000202BE0012B2BD01C4B5B6803F4C7
:1011A8008001E269914226D103F03F02216A8A4216
:1011B80023D1616A47F6C0721A40B2EB811F1ED173
:1011C80003F44031A26A5208013AB1EB024F18D138
:1011D80003F07063E26AB3EB026F14D1002006E0FB
:1011E80001207047012002E0012000E0002002B049
:1011F80070BD0120FBE70120F9E70120F7E7012096
:10120800F5E70120F3E70120F1E700BF00380240CD
:1012180060004742F8B5244B9B6803F00C03042B8D
:101228003DD0082B3DD1204B5A6802F03F025B6845
:1012380013F4800F12D01C4B5968C1F38811002396
:101248001A48A1FB0001FEF7BBFF174B5B68C3F30D
:10125800014301335B00B0FBF3F023E0124B5B6802
:10126800C3F388135C010025E41A65F10005AE019B
:1012780046EA9466A701381B66EB0501CC0044EAF0
:101288005074C500E81844F100018B0243EA9053FA
:101298008402204619460023FEF792FFD5E703484B
:1012A80000E00348F8BD00BF0038024040787D01E7
:1012B8000024F400002800F09B8070B50D46044619
:1012C8004F4B1B6803F007038B4208D2CBB24C4A42
:1012D8001370136803F007038B4240F08B80236878
:1012E80013F0020F17D013F0040F04D0454A936887
:1012F80043F4E0539360236813F0080F04D0414A85
:10130800936843F4604393603E4A936823F0F00384
:10131800A1680B439360236813F0010F32D0636810
:10132800012B21D09A1E012A25D9364A126812F0BB
:10133800020F61D033498A6822F0030213438B609D
:10134800FFF704F906462F4B9B6803F00C0362680D
:10135800B3EB820F16D0FFF7F9F8801B41F2883300
:101368009842F0D9032042E0264A126812F4003F5E
:10137800E0D101203BE0234A126812F0007FD9D166
:10138800012034E01E4B1B6803F00703AB4207D96A
:10139800EAB21B4B1A701B6803F00703AB422DD14E
:1013A800236813F0040F06D0164A936823F4E05319
:1013B800E1680B439360236813F0080F07D0114AC4
:1013C800936823F46043216943EAC1039360FFF7FC
:1013D80021FF0C4B9B68C3F303130B4AD35CD84023
:1013E8000A4B18600A4B1868FFF766F8002070BDB2
:1013F800012070470120FAE70120F8E70120F6E70D
:10140800003C024000380240981B000808000020F9
:1014180004000020014B1868704700BF0800002036
:1014280008B5FFF7F7FF044B9B68C3F38223034A11
:10143800D35CD84008BD00BF00380240A81B000894
:1014480008B5FFF7E7FF044B9B68C3F34233034A31
:10145800D35CD84008BD00BF00380240A81B000874
:1014680070B504460268136923F44053C1680B43FE
:10147800136183680269134342691343C2691A43BB
:101488000168CB6823F4164323F00C031343CB60A5
:101498000268536923F4407381690B4353610368FD
:1014A800344A934206D002F58062934202D0FFF795
:1014B800B7FF01E0FFF7C4FFE369B3F5004F2AD097
:1014C8000026051846EB06012D1846EB0101CB0056
:1014D80043EA5573EA001546194663689A009B0F5C
:1014E800281846EB0101FEF76BFE234DA5FB0032E1
:1014F8005109642303FB11031B013233A5FB0323AA
:101508005B0903F0F00202EB011203F00F032168FC
:1015180013448B6070BD0026051846EB06012D1894
:1015280046EB0101CB0043EA5573EA00154619461C
:1015380062683346921846EB0303281846EB01010C
:10154800FEF73EFE0C4DA5FB00325109642303FB58
:101558001103DB003233A5FB03235B095A0002F4B5
:10156800F87202EB011203F00703216813448B6041
:10157800D0E700BF001001401F85EB5158B310B5EC
:10158800044690F83D300BB3242384F83D3022689C
:10159800D36823F40053D3602046FFF761FF226825
:1015A800136923F4904313612268536923F02A03D3
:1015B80053612268D36843F40053D3600020206449
:1015C800202384F83D3084F83E3010BD80F83C304C
:1015D80000F044FAD8E701207047000030B58BB01E
:1015E8000024059406940794089409940094294BC0
:1015F8001A6B42F080021A631A6B02F080020092A2
:10160800009A01941A6B42F008021A631A6B02F0EE
:1016180008020192019A02941A6B42F004021A63BA
:101628001A6B02F004020292029A03941A6B42F0B7
:1016380001021A631A6B02F001020392039A0494DE
:101648001A6B42F002021A631B6B03F00203049345
:10165800049B114D22464FF400412846FFF7D6F867
:101668004FF4C04305930223069307940894099303
:1016780005A92846FEF7E0FF4FF400430593012330
:1016880006930794089405A92846FEF7D5FF0BB0E2
:1016980030BD00BF00380240000C024008B50B48BE
:1016A8000B4B03600B4B436000238360C3604FF414
:1016B8008042026143618361C3610362FFF71EFADE
:1016C80000B908BD00F0A8F8FBE700BF340400200B
:1016D80000540040A086010030B589B00023039370
:1016E80004930593069307930268154B9A4201D019
:1016F80009B030BD00250195124C236B43F002035D
:101708002363236B03F002030193019B4FF440739F
:1017180003931223049301230593032306930423BD
:10172800079303A90848FEF787FF0295236C43F443
:1017380000132364236C03F400130293029BD7E77E
:1017480000540040003802400004024030B595B013
:101758003022002108A800F007FA0024039404941A
:1017680005940694079401941C4B1A6C42F080521D
:101778001A641B6C03F080530193019B0294184B6D
:101788001A6842F480421A601B6803F4804302938B
:10179800029B012308934FF48033099302250E9589
:1017A8004FF480030F93192310934FF4A8731193E8
:1017B80012950423139308A8FFF730FB0F23039314
:1017C800049505944FF4A05306934FF48053079360
:1017D800052103A8FFF76EFD15B030BD00380240A3
:1017E8000070004008B5FEF78BFEFFF7AFFFFFF76C
:1017F800F5FEFFF753FF00F017F900F05DF84FF41E
:10180800FA70FEF7A9FE4FF400410248FFF704F80A
:10181800F5E700BF000C02407047000000B587B034
:101828008DF817000A230293012301930DF1170283
:101838000092002278210348FFF73EFA07B05DF8CE
:1018480004FB00BF34040020002303E0FF21054A05
:10185800D1540133B3F5806F03D20028F6D1014685
:10186800F5E770472800002010B584B000241AE07E
:10187800A4F15000C0B2FFF7D1FF0020FFF7CEFF60
:101888001020FFF7CBFF6423029380230193084BBA
:1018980003EBC41300930123402278210548FFF786
:1018A8000BFA0134E4B2072CE2D904B010BD00BF32
:1018B800280000203404002008B56420FEF74CFE00
:1018C800AE20FFF7ABFF2020FFF7A8FF1020FFF79F
:1018D800A5FFB020FFF7A2FFC820FFF79FFF002059
:1018E800FFF79CFF1020FFF799FF4020FFF796FFB6
:1018F8008120FFF793FFFF20FFF790FFA120FFF75C
:101908008DFFA620FFF78AFFA820FFF787FF3F205B
:10191800FFF784FFA420FFF781FFD320FFF77EFFA6
:101928000020FFF77BFFD520FFF778FFF020FFF7B7
:1019380075FFD920FFF772FF2220FFF76FFFDA202B
:10194800FFF76CFF1220FFF769FFDB20FFF766FF48
:101958002020FFF763FF8D20FFF760FF1420FFF7BB
:101968005DFFAF20FFF75AFF0020FFF76DFFFFF77D
:101978007BFF054B0022A3F80024A3F802240120D2
:1019880083F8050408BD00BF2800002082B00021AC
:1019980000910B4B5A6C42F480425A645A6C02F420
:1019A80080420092009A01911A6C42F080521A64A7
:1019B8001B6C03F080530193019B02B0704700BF7A
:1019C800003802407047FEE7FEE7FEE7FEE7704793
:1019D8007047704708B5FEF7ADFD08BD0F49D1F84F
:1019E800883043F47003C1F888300D4B1A6842F010
:1019F80001021A60002098601A6822F0847222F4AA
:101A080080321A60074A5A601A6822F480221A60E3
:101A1800D8604FF000638B60704700BF00ED00E0B6
:101A2800003802401030002408B50A480A4B036009
:101A38004FF4E133436000238360C36003610C22E9
:101A480042618361C361FFF799FD00B908BDFFF7E3
:101A5800E3FEFBE7880400200014014000B589B0CC
:101A68000023039304930593069307930268154B89
:101A78009A4202D009B05DF804FB0022019203F5F6
:101A88009233596C41F020015964596C01F02001DE
:101A9800019101990292196B41F0040119631B6BC2
:101AA80003F004030293029BC023039302230493CD
:101AB8000592032306930823079303A90248FEF718
:101AC800BBFDD7E70014014000080240DFF834D01E
:101AD800002103E00C4B5B58435004310B480C4B7E
:101AE80042189A42F6D30B4A02E0002342F8043B1C
:101AF800094B9A42F9D3FFF771FF00F011F8FFF78D
:101B080071FE704700000220C01B00080000002082
:101B18000C0000200C000020CC040020FEE7000090
:101B280070B50D4D0D4C641BA4100026A64209D1BA
:101B38000B4D0C4C00F020F8641BA4100026A642A4
:101B480005D170BD55F8043B98470136EEE755F8C6
:101B5800043B98470136F2E7B81B0008B81B000899
:101B6800B81B0008BC1B000802440346934200D17E
:101B7800704703F8011BF9E7F8B500BFF8BC08BCCB
:101B88009E467047F8B500BFF8BC08BC9E46704733
:101B98000000000000000000010203040607080915
:081BA80000000000010203042B
:081BB00048E6FF7F0100000080
:041BB800AD01000873
:041BBC008901000893
:0C1BC00001000000100000000024F400F0
:0400000508001AD500
:00000001FF
